:100000000C9434000C943E000C943E000C943E0082
:100010000C943E000C943E000C943E000C943E0068
:100020000C943E000C943E000C943E000C943E0058
:100030000C943E000C943E000C943E000C943E0048
:100040000C943E000C943E000C943E000C943E0038
:100050000C943E000C943E000C943E000C943E0028
:100060000C943E000C943E0011241FBECFEFD8E04C
:10007000DEBFCDBF0E9440000C9453000C940000E2
:1000800084B1887F84B98AB18C638AB98BB1837C4F
:100090008BB92FEF81EE94E0215080409040E1F742
:0A00A00000C00000F3CFF894FFCF7A
:00000001FF
